{
  "contractName": "DEXAbstract",
  "abi": [
    {
      "constant": true,
      "inputs": [],
      "name": "wallet",
      "outputs": [
        {
          "name": "",
          "type": "address"
        }
      ],
      "payable": false,
      "stateMutability": "view",
      "type": "function"
    },
    {
      "constant": true,
      "inputs": [],
      "name": "version",
      "outputs": [
        {
          "name": "",
          "type": "string"
        }
      ],
      "payable": false,
      "stateMutability": "view",
      "type": "function"
    },
    {
      "constant": true,
      "inputs": [],
      "name": "orderMatching",
      "outputs": [
        {
          "name": "",
          "type": "address"
        }
      ],
      "payable": false,
      "stateMutability": "view",
      "type": "function"
    },
    {
      "inputs": [
        {
          "name": "_orderMatching",
          "type": "address"
        },
        {
          "name": "_wallet",
          "type": "address"
        }
      ],
      "payable": false,
      "stateMutability": "nonpayable",
      "type": "constructor"
    }
  ],
  "bytecode": "0x60806040526040805190810160405280600981526020017f4445582e302e302e3100000000000000000000000000000000000000000000008152506000908051906020019061004f929190610112565b5034801561005c57600080fd5b50604051604080610476833981018060405281019080805190602001909291908051906020019092919050505081600160006101000a81548173ffffffffffffffffffffffffffffffffffffffff021916908373ffffffffffffffffffffffffffffffffffffffff16021790555080600260006101000a81548173ffffffffffffffffffffffffffffffffffffffff021916908373ffffffffffffffffffffffffffffffffffffffff16021790555050506101b7565b828054600181600116156101000203166002900490600052602060002090601f016020900481019282601f1061015357805160ff1916838001178555610181565b82800160010185558215610181579182015b82811115610180578251825591602001919060010190610165565b5b50905061018e9190610192565b5090565b6101b491905b808211156101b0576000816000905550600101610198565b5090565b90565b6102b0806101c66000396000f300608060405260043610610057576000357c0100000000000000000000000000000000000000000000000000000000900463ffffffff168063521eb2731461005c57806354fd4d50146100b3578063bb4046a614610143575b600080fd5b34801561006857600080fd5b5061007161019a565b604051808273ffffffffffffffffffffffffffffffffffffffff1673ffffffffffffffffffffffffffffffffffffffff16815260200191505060405180910390f35b3480156100bf57600080fd5b506100c86101c0565b6040518080602001828103825283818151815260200191508051906020019080838360005b838110156101085780820151818401526020810190506100ed565b50505050905090810190601f1680156101355780820380516001836020036101000a031916815260200191505b509250505060405180910390f35b34801561014f57600080fd5b5061015861025e565b604051808273ffffffffffffffffffffffffffffffffffffffff1673ffffffffffffffffffffffffffffffffffffffff16815260200191505060405180910390f35b600260009054906101000a900473ffffffffffffffffffffffffffffffffffffffff1681565b60008054600181600116156101000203166002900480601f0160208091040260200160405190810160405280929190818152602001828054600181600116156101000203166002900480156102565780601f1061022b57610100808354040283529160200191610256565b820191906000526020600020905b81548152906001019060200180831161023957829003601f168201915b505050505081565b600160009054906101000a900473ffffffffffffffffffffffffffffffffffffffff16815600a165627a7a7230582060f208582c37079682dca6fc69c58acd9b385ce0fd8117d387f0301ef83d4c100029",
  "source": "pragma solidity ^0.4.23;\nimport \"./OrderMatchingAbstract.sol\";\nimport \"./WalletAbstract.sol\";\n\ncontract DEXAbstract {\n\n    string public version = \"DEX.0.0.1\";\n\n    OrderMatchingAbstract public orderMatching;\n    WalletAbstract public wallet;\n\n    constructor(OrderMatchingAbstract _orderMatching, WalletAbstract _wallet){\n        orderMatching = _orderMatching;\n        wallet = _wallet;\n    }\n\n\n}\n",
  "sourcePath": "/home/super/Eth/SimpleEthereumDEX/contracts/DEXAbstract.sol",
  "compiler": {
    "name": "solc",
    "version": "0.4.24+commit.e67f0147.Emscripten.clang"
  },
  "schemaVersion": "2.0.0",
  "updatedAt": "2018-12-02T23:22:49.641Z"
}