{
  "contractName": "OrderMatchingPartial",
  "abi": [
    {
      "constant": true,
      "inputs": [],
      "name": "version",
      "outputs": [
        {
          "name": "",
          "type": "string"
        }
      ],
      "payable": false,
      "stateMutability": "view",
      "type": "function"
    },
    {
      "constant": false,
      "inputs": [
        {
          "name": "_amount",
          "type": "uint256"
        },
        {
          "name": "_price",
          "type": "uint256"
        },
        {
          "name": "_buyOrSell",
          "type": "bool"
        },
        {
          "name": "_asset",
          "type": "string"
        }
      ],
      "name": "addOrder",
      "outputs": [],
      "payable": false,
      "stateMutability": "nonpayable",
      "type": "function"
    },
    {
      "constant": true,
      "inputs": [
        {
          "name": "",
          "type": "uint256"
        }
      ],
      "name": "orderBook",
      "outputs": [
        {
          "name": "amount",
          "type": "uint256"
        },
        {
          "name": "price",
          "type": "uint256"
        },
        {
          "name": "buyOrSell",
          "type": "bool"
        },
        {
          "name": "asset",
          "type": "string"
        }
      ],
      "payable": false,
      "stateMutability": "view",
      "type": "function"
    },
    {
      "constant": true,
      "inputs": [
        {
          "name": "index",
          "type": "uint256"
        }
      ],
      "name": "getOrder",
      "outputs": [
        {
          "name": "_amount",
          "type": "uint256"
        },
        {
          "name": "_price",
          "type": "uint256"
        },
        {
          "name": "_buyOrSell",
          "type": "bool"
        },
        {
          "name": "_asset",
          "type": "string"
        }
      ],
      "payable": false,
      "stateMutability": "view",
      "type": "function"
    },
    {
      "constant": true,
      "inputs": [],
      "name": "getOrderBookLenght",
      "outputs": [
        {
          "name": "",
          "type": "uint256"
        }
      ],
      "payable": false,
      "stateMutability": "view",
      "type": "function"
    },
    {
      "inputs": [],
      "payable": false,
      "stateMutability": "nonpayable",
      "type": "constructor"
    },
    {
      "anonymous": false,
      "inputs": [
        {
          "indexed": false,
          "name": "_amount",
          "type": "uint256"
        },
        {
          "indexed": false,
          "name": "_price",
          "type": "uint256"
        },
        {
          "indexed": false,
          "name": "_buyOrSell",
          "type": "bool"
        },
        {
          "indexed": false,
          "name": "_asset",
          "type": "string"
        }
      ],
      "name": "OrderAddedToBook",
      "type": "event"
    },
    {
      "anonymous": false,
      "inputs": [
        {
          "indexed": false,
          "name": "_amount",
          "type": "uint256"
        },
        {
          "indexed": false,
          "name": "_price",
          "type": "uint256"
        },
        {
          "indexed": false,
          "name": "_buyOrSell",
          "type": "bool"
        },
        {
          "indexed": false,
          "name": "_asset",
          "type": "string"
        }
      ],
      "name": "OrderDeletedFromBook",
      "type": "event"
    },
    {
      "anonymous": false,
      "inputs": [
        {
          "indexed": false,
          "name": "_amountBuy",
          "type": "uint256"
        },
        {
          "indexed": false,
          "name": "_priceBuy",
          "type": "uint256"
        },
        {
          "indexed": false,
          "name": "_assetBuy",
          "type": "string"
        },
        {
          "indexed": false,
          "name": "_amountSell",
          "type": "uint256"
        },
        {
          "indexed": false,
          "name": "_priceSell",
          "type": "uint256"
        },
        {
          "indexed": false,
          "name": "_assetSell",
          "type": "string"
        }
      ],
      "name": "OrderMatch",
      "type": "event"
    },
    {
      "constant": false,
      "inputs": [],
      "name": "matchOrder",
      "outputs": [
        {
          "name": "",
          "type": "uint256"
        }
      ],
      "payable": false,
      "stateMutability": "nonpayable",
      "type": "function"
    }
  ],
  "bytecode": "0x60806040526040805190810160405280601081526020017f4f4d2e5061727469616c2e302e302e3100000000000000000000000000000000815250600290805190602001906200005192919062000066565b503480156200005f57600080fd5b5062000115565b828054600181600116156101000203166002900490600052602060002090601f016020900481019282601f10620000a957805160ff1916838001178555620000da565b82800160010185558215620000da579182015b82811115620000d9578251825591602001919060010190620000bc565b5b509050620000e99190620000ed565b5090565b6200011291905b808211156200010e576000816000905550600101620000f4565b5090565b90565b61156f80620001256000396000f300608060405260043610610078576000357c0100000000000000000000000000000000000000000000000000000000900463ffffffff16806354fd4d501461007d5780637a15d49a1461010d578063a20b6e3414610196578063b00292be14610255578063d09ef24114610280578063e401d59f1461033f575b600080fd5b34801561008957600080fd5b5061009261036a565b6040518080602001828103825283818151815260200191508051906020019080838360005b838110156100d25780820151818401526020810190506100b7565b50505050905090810190601f1680156100ff5780820380516001836020036101000a031916815260200191505b509250505060405180910390f35b34801561011957600080fd5b506101946004803603810190808035906020019092919080359060200190929190803515159060200190929190803590602001908201803590602001908080601f0160208091040260200160405190810160405280939291908181526020018383808284378201915050505050509192919290505050610408565b005b3480156101a257600080fd5b506101c160048036038101908080359060200190929190505050610580565b604051808581526020018481526020018315151515815260200180602001828103825283818151815260200191508051906020019080838360005b838110156102175780820151818401526020810190506101fc565b50505050905090810190601f1680156102445780820380516001836020036101000a031916815260200191505b509550505050505060405180910390f35b34801561026157600080fd5b5061026a610664565b6040518082815260200191505060405180910390f35b34801561028c57600080fd5b506102ab60048036038101908080359060200190929190505050611111565b604051808581526020018481526020018315151515815260200180602001828103825283818151815260200191508051906020019080838360005b838110156103015780820151818401526020810190506102e6565b50505050905090810190601f16801561032e5780820380516001836020036101000a031916815260200191505b509550505050505060405180910390f35b34801561034b57600080fd5b50610354611250565b6040518082815260200191505060405180910390f35b60028054600181600116156101000203166002900480601f0160208091040260200160405190810160405280929190818152602001828054600181600116156101000203166002900480156104005780601f106103d557610100808354040283529160200191610400565b820191906000526020600020905b8154815290600101906020018083116103e357829003601f168201915b505050505081565b61041061142b565b608060405190810160405280868152602001858152602001841515815260200183815250905060018190806001815401808255809150509060018203906000526020600020906004020160009091929091909150600082015181600001556020820151816001015560408201518160020160006101000a81548160ff02191690831515021790555060608201518160030190805190602001906104b4929190611456565b505050507fe4ad627a3d638f703f851ac66ab562779a8e2bffb72aeaa7dddbd84c6416ed6f85858585604051808581526020018481526020018315151515815260200180602001828103825283818151815260200191508051906020019080838360005b83811015610533578082015181840152602081019050610518565b50505050905090810190601f1680156105605780820380516001836020036101000a031916815260200191505b509550505050505060405180910390a1610578610664565b505050505050565b60018181548110151561058f57fe5b90600052602060002090600402016000915090508060000154908060010154908060020160009054906101000a900460ff1690806003018054600181600116156101000203166002900480601f01602080910402602001604051908101604052809291908181526020018280546001816001161561010002031660029004801561065a5780601f1061062f5761010080835404028352916020019161065a565b820191906000526020600020905b81548152906001019060200180831161063d57829003601f168201915b5050505050905084565b60008060008060008093505b60018054905084101561110a576001151560018581548110151561069057fe5b906000526020600020906004020160020160009054906101000a900460ff16151514156110fd57600092505b6001805490508310156110fc57600015156001848154811015156106dc57fe5b906000526020600020906004020160020160009054906101000a900460ff16151514156110ef57600260018481548110151561071457fe5b906000526020600020906004020160030160405180828054600181600116156101000203166002900480156107805780601f1061075e576101008083540402835291820191610780565b820191906000526020600020905b81548152906001019060200180831161076c575b50509150506020604051808303816000865af11580156107a4573d6000803e3d6000fd5b5050506040513d60208110156107b957600080fd5b81019080805190602001909291905050506000191660026001868154811015156107df57fe5b9060005260206000209060040201600301604051808280546001816001161561010002031660029004801561084b5780601f1061082957610100808354040283529182019161084b565b820191906000526020600020905b815481529060010190602001808311610837575b50509150506020604051808303816000865af115801561086f573d6000803e3d6000fd5b5050506040513d602081101561088457600080fd5b81019080805190602001909291905050506000191614156110ee576001838154811015156108ae57fe5b9060005260206000209060040201600101546001858154811015156108cf57fe5b9060005260206000209060040201600101541015156110ed576001838154811015156108f757fe5b90600052602060002090600402016000015460018581548110151561091857fe5b9060005260206000209060040201600001541415610b68577f46445881bec43b7125ea24139fb52782588118bd8000784e501788494c547fd360018581548110151561096057fe5b90600052602060002090600402016000015460018681548110151561098157fe5b9060005260206000209060040201600101546001878154811015156109a257fe5b90600052602060002090600402016003016001878154811015156109c257fe5b9060005260206000209060040201600001546001888154811015156109e357fe5b906000526020600020906004020160010154600189815481101515610a0457fe5b9060005260206000209060040201600301604051808781526020018681526020018060200185815260200184815260200180602001838103835287818154600181600116156101000203166002900481526020019150805460018160011615610100020316600290048015610aba5780601f10610a8f57610100808354040283529160200191610aba565b820191906000526020600020905b815481529060010190602001808311610a9d57829003601f168201915b5050838103825284818154600181600116156101000203166002900481526020019150805460018160011615610100020316600290048015610b3d5780601f10610b1257610100808354040283529160200191610b3d565b820191906000526020600020905b815481529060010190602001808311610b2057829003601f168201915b50509850505050505050505060405180910390a1610b5a8461125d565b610b638361125d565b6110ec565b600183815481101515610b7757fe5b906000526020600020906004020160000154600185815481101515610b9857fe5b9060005260206000209060040201600001541115610e2b57600183815481101515610bbf57fe5b906000526020600020906004020160000154600185815481101515610be057fe5b9060005260206000209060040201600001540391507f46445881bec43b7125ea24139fb52782588118bd8000784e501788494c547fd382600186815481101515610c2657fe5b906000526020600020906004020160010154600187815481101515610c4757fe5b906000526020600020906004020160030185600188815481101515610c6857fe5b906000526020600020906004020160010154600189815481101515610c8957fe5b9060005260206000209060040201600301604051808781526020018681526020018060200185815260200184815260200180602001838103835287818154600181600116156101000203166002900481526020019150805460018160011615610100020316600290048015610d3f5780601f10610d1457610100808354040283529160200191610d3f565b820191906000526020600020905b815481529060010190602001808311610d2257829003601f168201915b5050838103825284818154600181600116156101000203166002900481526020019150805460018160011615610100020316600290048015610dc25780601f10610d9757610100808354040283529160200191610dc2565b820191906000526020600020905b815481529060010190602001808311610da557829003601f168201915b50509850505050505050505060405180910390a1610ddf8361125d565b81600185815481101515610def57fe5b90600052602060002090600402016000015403600185815481101515610e1157fe5b9060005260206000209060040201600001819055506110eb565b600183815481101515610e3a57fe5b906000526020600020906004020160000154600185815481101515610e5b57fe5b90600052602060002090600402016000015410156110ea57600184815481101515610e8257fe5b906000526020600020906004020160000154600184815481101515610ea357fe5b9060005260206000209060040201600001540390507f46445881bec43b7125ea24139fb52782588118bd8000784e501788494c547fd381600186815481101515610ee957fe5b906000526020600020906004020160010154600187815481101515610f0a57fe5b906000526020600020906004020160030184600188815481101515610f2b57fe5b906000526020600020906004020160010154600189815481101515610f4c57fe5b90600052602060002090600402016003016040518087815260200186815260200180602001858152602001848152602001806020018381038352878181546001816001161561010002031660029004815260200191508054600181600116156101000203166002900480156110025780601f10610fd757610100808354040283529160200191611002565b820191906000526020600020905b815481529060010190602001808311610fe557829003601f168201915b50508381038252848181546001816001161561010002031660029004815260200191508054600181600116156101000203166002900480156110855780601f1061105a57610100808354040283529160200191611085565b820191906000526020600020905b81548152906001019060200180831161106857829003601f168201915b50509850505050505050505060405180910390a16110a28461125d565b806001848154811015156110b257fe5b906000526020600020906004020160000154036001848154811015156110d457fe5b9060005260206000209060040201600001819055505b5b5b5b5b5b82806001019350506106bc565b5b8380600101945050610670565b5050505090565b6000806000606060018581548110151561112757fe5b906000526020600020906004020160000154935060018581548110151561114a57fe5b906000526020600020906004020160010154925060018581548110151561116d57fe5b906000526020600020906004020160020160009054906101000a900460ff16915060018581548110151561119d57fe5b90600052602060002090600402016003018054600181600116156101000203166002900480601f0160208091040260200160405190810160405280929190818152602001828054600181600116156101000203166002900480156112425780601f1061121757610100808354040283529160200191611242565b820191906000526020600020905b81548152906001019060200180831161122557829003601f168201915b505050505090509193509193565b6000600180549050905090565b60008060008060018581548110151561127257fe5b906000526020600020906004020160000154935060018581548110151561129557fe5b90600052602060002090600402016001015492506001858154811015156112b857fe5b906000526020600020906004020160020160009054906101000a900460ff1691506001858154811015156112e857fe5b9060005260206000209060040201600301905060018581548110151561130a57fe5b906000526020600020906004020160008082016000905560018201600090556002820160006101000a81549060ff021916905560038201600061134d91906114d6565b50507fd956302018e17485afde53b6519b82b98f74a2c804afe6dbb1e2cde6e21bb24f848484846040518085815260200184815260200183151515158152602001806020018281038252838181546001816001161561010002031660029004815260200191508054600181600116156101000203166002900480156114135780601f106113e857610100808354040283529160200191611413565b820191906000526020600020905b8154815290600101906020018083116113f657829003601f168201915b50509550505050505060405180910390a15050505050565b6080604051908101604052806000815260200160008152602001600015158152602001606081525090565b828054600181600116156101000203166002900490600052602060002090601f016020900481019282601f1061149757805160ff19168380011785556114c5565b828001600101855582156114c5579182015b828111156114c45782518255916020019190600101906114a9565b5b5090506114d2919061151e565b5090565b50805460018160011615610100020316600290046000825580601f106114fc575061151b565b601f01602090049060005260206000209081019061151a919061151e565b5b50565b61154091905b8082111561153c576000816000905550600101611524565b5090565b905600a165627a7a723058201f3487d2d2517c41abe31634db01b38b88b7c02963177a48432409fde1c460730029",
  "source": "pragma solidity ^0.4.23;\nimport \"./OrderMatchingAbstract.sol\";\n\n// matching exaxt orders\ncontract OrderMatchingPartial is OrderMatchingAbstract {\n\n   string public version = \"OM.Partial.0.0.1\";\n\n   //Constructor\n   constructor(){\n\n   }\n\n    // start order matching returning effected rows\n    function matchOrder() public returns (uint) {\n\n        for(uint actualBuyOrderIndex=0; actualBuyOrderIndex < orderBook.length; actualBuyOrderIndex++) {\n      \tif (orderBook[actualBuyOrderIndex].buyOrSell == true) {\n\t\t  \tfor(uint actualSellOrderIndex=0; actualSellOrderIndex < orderBook.length; actualSellOrderIndex++) {\n\t\t\t\tif (orderBook[actualSellOrderIndex].buyOrSell == false) {\n                \t// matching asset type \n                  \tif (sha256(orderBook[actualBuyOrderIndex].asset) == sha256(orderBook[actualSellOrderIndex].asset)) {       \n\n                        //matching price\n                        if (orderBook[actualBuyOrderIndex].price >= orderBook[actualSellOrderIndex].price) {\n\n                            // partial matching: case - exact amount\n                            if (orderBook[actualBuyOrderIndex].amount == orderBook[actualSellOrderIndex].amount) {\n                                //MATCHING\n                                // Event\n                                emit OrderMatch(orderBook[actualBuyOrderIndex].amount,\n                                orderBook[actualBuyOrderIndex].price,\n                                orderBook[actualBuyOrderIndex].asset,\n                                orderBook[actualSellOrderIndex].amount,\n                                orderBook[actualSellOrderIndex].price,\n                                orderBook[actualSellOrderIndex].asset);\n\n                                // Applying to state\n\n                                // Deleting the orders\n                                deleteOrder(actualBuyOrderIndex);\n                                deleteOrder(actualSellOrderIndex);\n                            }\n                            // partial matching: case - more buy than sell\n                            else if (orderBook[actualBuyOrderIndex].amount > orderBook[actualSellOrderIndex].amount) {\n                                uint amountBuy = orderBook[actualBuyOrderIndex].amount - orderBook[actualSellOrderIndex].amount;\n\n                                //MATCHING\n                                // Event\n                                emit OrderMatch(amountBuy,\n                                orderBook[actualBuyOrderIndex].price,\n                                orderBook[actualBuyOrderIndex].asset,\n                                amountBuy,\n                                orderBook[actualSellOrderIndex].price,\n                                orderBook[actualSellOrderIndex].asset);\n\n                                // Applying to state\n\n                                // Deleting the orders\n                                deleteOrder(actualSellOrderIndex);\n                                orderBook[actualBuyOrderIndex].amount = orderBook[actualBuyOrderIndex].amount - amountBuy;                       \n                            }               \n                            // partial matching: case - more sell  than buy\n                            else if (orderBook[actualBuyOrderIndex].amount < orderBook[actualSellOrderIndex].amount) {\n                            uint amountSell = orderBook[actualSellOrderIndex].amount - orderBook[actualBuyOrderIndex].amount;\n                       \n                                //MATCHING\n                                // Event\n                                emit OrderMatch(amountSell,\n                                orderBook[actualBuyOrderIndex].price,\n                                orderBook[actualBuyOrderIndex].asset,\n                                amountSell,\n                                orderBook[actualSellOrderIndex].price,\n                                orderBook[actualSellOrderIndex].asset);\n\n                                // Applying to state\n\n                                // Deleting the orders\n                                deleteOrder(actualBuyOrderIndex);\n                                orderBook[actualSellOrderIndex].amount = orderBook[actualSellOrderIndex].amount - amountSell; \n                            }                      \t       \t\n                        }                  \t\n                    }      \t\t\n                }\n            }\n        }\n    }\n}\n}",
  "sourcePath": "/home/super/Eth/SimpleEthereumDEX/contracts/OrderMatchingPartial.sol",
  "compiler": {
    "name": "solc",
    "version": "0.4.24+commit.e67f0147.Emscripten.clang"
  },
  "schemaVersion": "2.0.0",
  "updatedAt": "2018-12-02T15:36:41.715Z"
}