{
  "contractName": "OrderMatchingSimple",
  "abi": [
    {
      "constant": true,
      "inputs": [],
      "name": "version",
      "outputs": [
        {
          "name": "",
          "type": "string"
        }
      ],
      "payable": false,
      "stateMutability": "view",
      "type": "function"
    },
    {
      "constant": false,
      "inputs": [
        {
          "name": "_amount",
          "type": "uint256"
        },
        {
          "name": "_price",
          "type": "uint256"
        },
        {
          "name": "_buyOrSell",
          "type": "bool"
        },
        {
          "name": "_asset",
          "type": "string"
        }
      ],
      "name": "addOrder",
      "outputs": [],
      "payable": false,
      "stateMutability": "nonpayable",
      "type": "function"
    },
    {
      "constant": true,
      "inputs": [
        {
          "name": "",
          "type": "uint256"
        }
      ],
      "name": "orderBook",
      "outputs": [
        {
          "name": "amount",
          "type": "uint256"
        },
        {
          "name": "price",
          "type": "uint256"
        },
        {
          "name": "buyOrSell",
          "type": "bool"
        },
        {
          "name": "asset",
          "type": "string"
        }
      ],
      "payable": false,
      "stateMutability": "view",
      "type": "function"
    },
    {
      "constant": true,
      "inputs": [
        {
          "name": "index",
          "type": "uint256"
        }
      ],
      "name": "getOrder",
      "outputs": [
        {
          "name": "_amount",
          "type": "uint256"
        },
        {
          "name": "_price",
          "type": "uint256"
        },
        {
          "name": "_buyOrSell",
          "type": "bool"
        },
        {
          "name": "_asset",
          "type": "string"
        }
      ],
      "payable": false,
      "stateMutability": "view",
      "type": "function"
    },
    {
      "constant": true,
      "inputs": [],
      "name": "getOrderBookLenght",
      "outputs": [
        {
          "name": "",
          "type": "uint256"
        }
      ],
      "payable": false,
      "stateMutability": "view",
      "type": "function"
    },
    {
      "inputs": [],
      "payable": false,
      "stateMutability": "nonpayable",
      "type": "constructor"
    },
    {
      "anonymous": false,
      "inputs": [
        {
          "indexed": false,
          "name": "_amount",
          "type": "uint256"
        },
        {
          "indexed": false,
          "name": "_price",
          "type": "uint256"
        },
        {
          "indexed": false,
          "name": "_buyOrSell",
          "type": "bool"
        },
        {
          "indexed": false,
          "name": "_asset",
          "type": "string"
        }
      ],
      "name": "OrderAddedToBook",
      "type": "event"
    },
    {
      "anonymous": false,
      "inputs": [
        {
          "indexed": false,
          "name": "_amount",
          "type": "uint256"
        },
        {
          "indexed": false,
          "name": "_price",
          "type": "uint256"
        },
        {
          "indexed": false,
          "name": "_buyOrSell",
          "type": "bool"
        },
        {
          "indexed": false,
          "name": "_asset",
          "type": "string"
        }
      ],
      "name": "OrderDeletedFromBook",
      "type": "event"
    },
    {
      "anonymous": false,
      "inputs": [
        {
          "indexed": false,
          "name": "_amountBuy",
          "type": "uint256"
        },
        {
          "indexed": false,
          "name": "_priceBuy",
          "type": "uint256"
        },
        {
          "indexed": false,
          "name": "_assetBuy",
          "type": "string"
        },
        {
          "indexed": false,
          "name": "_amountSell",
          "type": "uint256"
        },
        {
          "indexed": false,
          "name": "_priceSell",
          "type": "uint256"
        },
        {
          "indexed": false,
          "name": "_assetSell",
          "type": "string"
        }
      ],
      "name": "OrderMatch",
      "type": "event"
    },
    {
      "constant": false,
      "inputs": [],
      "name": "matchOrder",
      "outputs": [
        {
          "name": "",
          "type": "uint256"
        }
      ],
      "payable": false,
      "stateMutability": "nonpayable",
      "type": "function"
    }
  ],
  "bytecode": "0x60806040526040805190810160405280600f81526020017f4f4d2e53696d706c652e302e302e3100000000000000000000000000000000008152506002908051906020019061004f929190610062565b5034801561005c57600080fd5b50610107565b828054600181600116156101000203166002900490600052602060002090601f016020900481019282601f106100a357805160ff19168380011785556100d1565b828001600101855582156100d1579182015b828111156100d05782518255916020019190600101906100b5565b5b5090506100de91906100e2565b5090565b61010491905b808211156101005760008160009055506001016100e8565b5090565b90565b610fe2806101166000396000f300608060405260043610610078576000357c0100000000000000000000000000000000000000000000000000000000900463ffffffff16806354fd4d501461007d5780637a15d49a1461010d578063a20b6e3414610196578063b00292be14610255578063d09ef24114610280578063e401d59f1461033f575b600080fd5b34801561008957600080fd5b5061009261036a565b6040518080602001828103825283818151815260200191508051906020019080838360005b838110156100d25780820151818401526020810190506100b7565b50505050905090810190601f1680156100ff5780820380516001836020036101000a031916815260200191505b509250505060405180910390f35b34801561011957600080fd5b506101946004803603810190808035906020019092919080359060200190929190803515159060200190929190803590602001908201803590602001908080601f0160208091040260200160405190810160405280939291908181526020018383808284378201915050505050509192919290505050610408565b005b3480156101a257600080fd5b506101c160048036038101908080359060200190929190505050610580565b604051808581526020018481526020018315151515815260200180602001828103825283818151815260200191508051906020019080838360005b838110156102175780820151818401526020810190506101fc565b50505050905090810190601f1680156102445780820380516001836020036101000a031916815260200191505b509550505050505060405180910390f35b34801561026157600080fd5b5061026a610664565b6040518082815260200191505060405180910390f35b34801561028c57600080fd5b506102ab60048036038101908080359060200190929190505050610b84565b604051808581526020018481526020018315151515815260200180602001828103825283818151815260200191508051906020019080838360005b838110156103015780820151818401526020810190506102e6565b50505050905090810190601f16801561032e5780820380516001836020036101000a031916815260200191505b509550505050505060405180910390f35b34801561034b57600080fd5b50610354610cc3565b6040518082815260200191505060405180910390f35b60028054600181600116156101000203166002900480601f0160208091040260200160405190810160405280929190818152602001828054600181600116156101000203166002900480156104005780601f106103d557610100808354040283529160200191610400565b820191906000526020600020905b8154815290600101906020018083116103e357829003601f168201915b505050505081565b610410610e9e565b608060405190810160405280868152602001858152602001841515815260200183815250905060018190806001815401808255809150509060018203906000526020600020906004020160009091929091909150600082015181600001556020820151816001015560408201518160020160006101000a81548160ff02191690831515021790555060608201518160030190805190602001906104b4929190610ec9565b505050507fe4ad627a3d638f703f851ac66ab562779a8e2bffb72aeaa7dddbd84c6416ed6f85858585604051808581526020018481526020018315151515815260200180602001828103825283818151815260200191508051906020019080838360005b83811015610533578082015181840152602081019050610518565b50505050905090810190601f1680156105605780820380516001836020036101000a031916815260200191505b509550505050505060405180910390a1610578610664565b505050505050565b60018181548110151561058f57fe5b90600052602060002090600402016000915090508060000154908060010154908060020160009054906101000a900460ff1690806003018054600181600116156101000203166002900480601f01602080910402602001604051908101604052809291908181526020018280546001816001161561010002031660029004801561065a5780601f1061062f5761010080835404028352916020019161065a565b820191906000526020600020905b81548152906001019060200180831161063d57829003601f168201915b5050505050905084565b60008060008091505b600180549050821015610b7f576001151560018381548110151561068d57fe5b906000526020600020906004020160020160009054906101000a900460ff1615151415610b7257600090505b600180549050811015610b7157600015156001828154811015156106d957fe5b906000526020600020906004020160020160009054906101000a900460ff1615151415610b6457600260018281548110151561071157fe5b9060005260206000209060040201600301604051808280546001816001161561010002031660029004801561077d5780601f1061075b57610100808354040283529182019161077d565b820191906000526020600020905b815481529060010190602001808311610769575b50509150506020604051808303816000865af11580156107a1573d6000803e3d6000fd5b5050506040513d60208110156107b657600080fd5b81019080805190602001909291905050506000191660026001848154811015156107dc57fe5b906000526020600020906004020160030160405180828054600181600116156101000203166002900480156108485780601f10610826576101008083540402835291820191610848565b820191906000526020600020905b815481529060010190602001808311610834575b50509150506020604051808303816000865af115801561086c573d6000803e3d6000fd5b5050506040513d602081101561088157600080fd5b8101908080519060200190929190505050600019161415610b63576001818154811015156108ab57fe5b9060005260206000209060040201600001546001838154811015156108cc57fe5b9060005260206000209060040201600001541415610b62576001818154811015156108f357fe5b90600052602060002090600402016001015460018381548110151561091457fe5b906000526020600020906004020160010154101515610b61577f46445881bec43b7125ea24139fb52782588118bd8000784e501788494c547fd360018381548110151561095d57fe5b90600052602060002090600402016000015460018481548110151561097e57fe5b90600052602060002090600402016001015460018581548110151561099f57fe5b90600052602060002090600402016003016001858154811015156109bf57fe5b9060005260206000209060040201600001546001868154811015156109e057fe5b906000526020600020906004020160010154600187815481101515610a0157fe5b9060005260206000209060040201600301604051808781526020018681526020018060200185815260200184815260200180602001838103835287818154600181600116156101000203166002900481526020019150805460018160011615610100020316600290048015610ab75780601f10610a8c57610100808354040283529160200191610ab7565b820191906000526020600020905b815481529060010190602001808311610a9a57829003601f168201915b5050838103825284818154600181600116156101000203166002900481526020019150805460018160011615610100020316600290048015610b3a5780601f10610b0f57610100808354040283529160200191610b3a565b820191906000526020600020905b815481529060010190602001808311610b1d57829003601f168201915b50509850505050505050505060405180910390a1610b5782610cd0565b610b6081610cd0565b5b5b5b5b80806001019150506106b9565b5b818060010192505061066d565b505090565b60008060006060600185815481101515610b9a57fe5b9060005260206000209060040201600001549350600185815481101515610bbd57fe5b9060005260206000209060040201600101549250600185815481101515610be057fe5b906000526020600020906004020160020160009054906101000a900460ff169150600185815481101515610c1057fe5b90600052602060002090600402016003018054600181600116156101000203166002900480601f016020809104026020016040519081016040528092919081815260200182805460018160011615610100020316600290048015610cb55780601f10610c8a57610100808354040283529160200191610cb5565b820191906000526020600020905b815481529060010190602001808311610c9857829003601f168201915b505050505090509193509193565b6000600180549050905090565b600080600080600185815481101515610ce557fe5b9060005260206000209060040201600001549350600185815481101515610d0857fe5b9060005260206000209060040201600101549250600185815481101515610d2b57fe5b906000526020600020906004020160020160009054906101000a900460ff169150600185815481101515610d5b57fe5b90600052602060002090600402016003019050600185815481101515610d7d57fe5b906000526020600020906004020160008082016000905560018201600090556002820160006101000a81549060ff0219169055600382016000610dc09190610f49565b50507fd956302018e17485afde53b6519b82b98f74a2c804afe6dbb1e2cde6e21bb24f84848484604051808581526020018481526020018315151515815260200180602001828103825283818154600181600116156101000203166002900481526020019150805460018160011615610100020316600290048015610e865780601f10610e5b57610100808354040283529160200191610e86565b820191906000526020600020905b815481529060010190602001808311610e6957829003601f168201915b50509550505050505060405180910390a15050505050565b6080604051908101604052806000815260200160008152602001600015158152602001606081525090565b828054600181600116156101000203166002900490600052602060002090601f016020900481019282601f10610f0a57805160ff1916838001178555610f38565b82800160010185558215610f38579182015b82811115610f37578251825591602001919060010190610f1c565b5b509050610f459190610f91565b5090565b50805460018160011615610100020316600290046000825580601f10610f6f5750610f8e565b601f016020900490600052602060002090810190610f8d9190610f91565b5b50565b610fb391905b80821115610faf576000816000905550600101610f97565b5090565b905600a165627a7a72305820b6851404123d7185b61f55ed77f9a1c57519deefb185e2a7a169023b1ed5624b0029",
  "source": "pragma solidity ^0.4.23;\nimport \"./OrderMatchingAbstract.sol\";\n\n// matching exaxt orders\ncontract OrderMatchingSimple is OrderMatchingAbstract {\n\n   string public version = \"OM.Simple.0.0.1\";\n\n   //Constructor\n   constructor(){\n\n   }\n\n    // start order matching returning effected rows\n    function matchOrder() public returns (uint) {\n\n        for(uint actualBuyOrderIndex=0; actualBuyOrderIndex < orderBook.length; actualBuyOrderIndex++) {\n      \tif (orderBook[actualBuyOrderIndex].buyOrSell == true) {\n\t\t  \tfor(uint actualSellOrderIndex=0; actualSellOrderIndex < orderBook.length; actualSellOrderIndex++) {\n\t\t\t\tif (orderBook[actualSellOrderIndex].buyOrSell == false) {\n                \t// matching asset type \n                  \tif (sha256(orderBook[actualBuyOrderIndex].asset) == sha256(orderBook[actualSellOrderIndex].asset)) {       \n                        // matching amount\n\t                  \tif (orderBook[actualBuyOrderIndex].amount == orderBook[actualSellOrderIndex].amount) {\n                        {\n                            //matching price\n                            if (orderBook[actualBuyOrderIndex].price >= orderBook[actualSellOrderIndex].price) {\n                                //MATCHING\n                                // Event\n                                emit OrderMatch(orderBook[actualBuyOrderIndex].amount,\n                                orderBook[actualBuyOrderIndex].price,\n                                orderBook[actualBuyOrderIndex].asset,\n                                orderBook[actualSellOrderIndex].amount,\n                                orderBook[actualSellOrderIndex].price,\n                                orderBook[actualSellOrderIndex].asset);\n\n                                // Applying to state\n\n                                // Deleting the orders\n                                deleteOrder(actualBuyOrderIndex);\n                                deleteOrder(actualSellOrderIndex);\n                            }\n                        }                      \t\n                    }                  \t\n                }      \t\t\n            }\n        }\n    }\n}\n}\n}",
  "sourcePath": "/home/super/Eth/SimpleEthereumDEX/contracts/OrderMatchingPartial.sol",
  "compiler": {
    "name": "solc",
    "version": "0.4.24+commit.e67f0147.Emscripten.clang"
  },
  "schemaVersion": "2.0.0",
  "updatedAt": "2018-12-02T14:47:57.735Z"
}