{
  "contractName": "OrderMatchingPartial",
  "abi": [
    {
      "constant": true,
      "inputs": [
        {
          "name": "index",
          "type": "uint256"
        }
      ],
      "name": "getOrderPrice",
      "outputs": [
        {
          "name": "_price",
          "type": "uint256"
        }
      ],
      "payable": false,
      "stateMutability": "view",
      "type": "function"
    },
    {
      "constant": true,
      "inputs": [
        {
          "name": "index",
          "type": "uint256"
        }
      ],
      "name": "getOrderBuyOrSell",
      "outputs": [
        {
          "name": "_buyOrSell",
          "type": "bool"
        }
      ],
      "payable": false,
      "stateMutability": "view",
      "type": "function"
    },
    {
      "constant": true,
      "inputs": [],
      "name": "version",
      "outputs": [
        {
          "name": "",
          "type": "string"
        }
      ],
      "payable": false,
      "stateMutability": "view",
      "type": "function"
    },
    {
      "constant": true,
      "inputs": [
        {
          "name": "index",
          "type": "uint256"
        }
      ],
      "name": "getOrderAmount",
      "outputs": [
        {
          "name": "_amount",
          "type": "uint256"
        }
      ],
      "payable": false,
      "stateMutability": "view",
      "type": "function"
    },
    {
      "constant": false,
      "inputs": [
        {
          "name": "_amount",
          "type": "uint256"
        },
        {
          "name": "_price",
          "type": "uint256"
        },
        {
          "name": "_buyOrSell",
          "type": "bool"
        },
        {
          "name": "_asset",
          "type": "string"
        }
      ],
      "name": "addOrder",
      "outputs": [],
      "payable": false,
      "stateMutability": "nonpayable",
      "type": "function"
    },
    {
      "constant": true,
      "inputs": [
        {
          "name": "",
          "type": "uint256"
        }
      ],
      "name": "orderBook",
      "outputs": [
        {
          "name": "amount",
          "type": "uint256"
        },
        {
          "name": "price",
          "type": "uint256"
        },
        {
          "name": "buyOrSell",
          "type": "bool"
        },
        {
          "name": "asset",
          "type": "string"
        }
      ],
      "payable": false,
      "stateMutability": "view",
      "type": "function"
    },
    {
      "constant": true,
      "inputs": [
        {
          "name": "index",
          "type": "uint256"
        }
      ],
      "name": "getOrder",
      "outputs": [
        {
          "name": "_amount",
          "type": "uint256"
        },
        {
          "name": "_price",
          "type": "uint256"
        },
        {
          "name": "_buyOrSell",
          "type": "bool"
        },
        {
          "name": "_asset",
          "type": "string"
        }
      ],
      "payable": false,
      "stateMutability": "view",
      "type": "function"
    },
    {
      "constant": true,
      "inputs": [
        {
          "name": "index",
          "type": "uint256"
        }
      ],
      "name": "getOrderAsset",
      "outputs": [
        {
          "name": "_asset",
          "type": "string"
        }
      ],
      "payable": false,
      "stateMutability": "view",
      "type": "function"
    },
    {
      "constant": true,
      "inputs": [],
      "name": "getOrderBookLenght",
      "outputs": [
        {
          "name": "",
          "type": "uint256"
        }
      ],
      "payable": false,
      "stateMutability": "view",
      "type": "function"
    },
    {
      "inputs": [],
      "payable": false,
      "stateMutability": "nonpayable",
      "type": "constructor"
    },
    {
      "anonymous": false,
      "inputs": [
        {
          "indexed": false,
          "name": "_amount",
          "type": "uint256"
        },
        {
          "indexed": false,
          "name": "_price",
          "type": "uint256"
        },
        {
          "indexed": false,
          "name": "_buyOrSell",
          "type": "bool"
        },
        {
          "indexed": false,
          "name": "_asset",
          "type": "string"
        }
      ],
      "name": "OrderAddedToBook",
      "type": "event"
    },
    {
      "anonymous": false,
      "inputs": [
        {
          "indexed": false,
          "name": "_amount",
          "type": "uint256"
        },
        {
          "indexed": false,
          "name": "_price",
          "type": "uint256"
        },
        {
          "indexed": false,
          "name": "_buyOrSell",
          "type": "bool"
        },
        {
          "indexed": false,
          "name": "_asset",
          "type": "string"
        }
      ],
      "name": "OrderDeletedFromBook",
      "type": "event"
    },
    {
      "anonymous": false,
      "inputs": [
        {
          "indexed": false,
          "name": "_amountBuy",
          "type": "uint256"
        },
        {
          "indexed": false,
          "name": "_priceBuy",
          "type": "uint256"
        },
        {
          "indexed": false,
          "name": "_assetBuy",
          "type": "string"
        },
        {
          "indexed": false,
          "name": "_amountSell",
          "type": "uint256"
        },
        {
          "indexed": false,
          "name": "_priceSell",
          "type": "uint256"
        },
        {
          "indexed": false,
          "name": "_assetSell",
          "type": "string"
        }
      ],
      "name": "OrderMatch",
      "type": "event"
    },
    {
      "constant": false,
      "inputs": [],
      "name": "matchOrder",
      "outputs": [
        {
          "name": "",
          "type": "uint256"
        }
      ],
      "payable": false,
      "stateMutability": "nonpayable",
      "type": "function"
    }
  ],
  "bytecode": "0x60806040526040805190810160405280601081526020017f4f4d2e5061727469616c2e302e302e3100000000000000000000000000000000815250600290805190602001906200005192919062000066565b503480156200005f57600080fd5b5062000115565b828054600181600116156101000203166002900490600052602060002090601f016020900481019282601f10620000a957805160ff1916838001178555620000da565b82800160010185558215620000da579182015b82811115620000d9578251825591602001919060010190620000bc565b5b509050620000e99190620000ed565b5090565b6200011291905b808211156200010e576000816000905550600101620000f4565b5090565b90565b61181180620001256000396000f3006080604052600436106100a4576000357c0100000000000000000000000000000000000000000000000000000000900463ffffffff1680630f251358146100a95780631309bbaf146100ea57806354fd4d501461012f57806367bb1fcf146101bf5780637a15d49a14610200578063a20b6e3414610289578063b00292be14610348578063d09ef24114610373578063de5cceb614610432578063e401d59f146104d8575b600080fd5b3480156100b557600080fd5b506100d460048036038101908080359060200190929190505050610503565b6040518082815260200191505060405180910390f35b3480156100f657600080fd5b506101156004803603810190808035906020019092919050505061052d565b604051808215151515815260200191505060405180910390f35b34801561013b57600080fd5b50610144610564565b6040518080602001828103825283818151815260200191508051906020019080838360005b83811015610184578082015181840152602081019050610169565b50505050905090810190601f1680156101b15780820380516001836020036101000a031916815260200191505b509250505060405180910390f35b3480156101cb57600080fd5b506101ea60048036038101908080359060200190929190505050610602565b6040518082815260200191505060405180910390f35b34801561020c57600080fd5b506102876004803603810190808035906020019092919080359060200190929190803515159060200190929190803590602001908201803590602001908080601f016020809104026020016040519081016040528093929190818152602001838380828437820191505050505050919291929050505061062c565b005b34801561029557600080fd5b506102b4600480360381019080803590602001909291905050506107a4565b604051808581526020018481526020018315151515815260200180602001828103825283818151815260200191508051906020019080838360005b8381101561030a5780820151818401526020810190506102ef565b50505050905090810190601f1680156103375780820380516001836020036101000a031916815260200191505b509550505050505060405180910390f35b34801561035457600080fd5b5061035d610888565b6040518082815260200191505060405180910390f35b34801561037f57600080fd5b5061039e600480360381019080803590602001909291905050506112f1565b604051808581526020018481526020018315151515815260200180602001828103825283818151815260200191508051906020019080838360005b838110156103f45780820151818401526020810190506103d9565b50505050905090810190601f1680156104215780820380516001836020036101000a031916815260200191505b509550505050505060405180910390f35b34801561043e57600080fd5b5061045d60048036038101908080359060200190929190505050611430565b6040518080602001828103825283818151815260200191508051906020019080838360005b8381101561049d578082015181840152602081019050610482565b50505050905090810190601f1680156104ca5780820380516001836020036101000a031916815260200191505b509250505060405180910390f35b3480156104e457600080fd5b506104ed6114f2565b6040518082815260200191505060405180910390f35b600060018281548110151561051457fe5b9060005260206000209060040201600101549050919050565b600060018281548110151561053e57fe5b906000526020600020906004020160020160009054906101000a900460ff169050919050565b60028054600181600116156101000203166002900480601f0160208091040260200160405190810160405280929190818152602001828054600181600116156101000203166002900480156105fa5780601f106105cf576101008083540402835291602001916105fa565b820191906000526020600020905b8154815290600101906020018083116105dd57829003601f168201915b505050505081565b600060018281548110151561061357fe5b9060005260206000209060040201600001549050919050565b6106346116cd565b608060405190810160405280868152602001858152602001841515815260200183815250905060018190806001815401808255809150509060018203906000526020600020906004020160009091929091909150600082015181600001556020820151816001015560408201518160020160006101000a81548160ff02191690831515021790555060608201518160030190805190602001906106d89291906116f8565b505050507fe4ad627a3d638f703f851ac66ab562779a8e2bffb72aeaa7dddbd84c6416ed6f85858585604051808581526020018481526020018315151515815260200180602001828103825283818151815260200191508051906020019080838360005b8381101561075757808201518184015260208101905061073c565b50505050905090810190601f1680156107845780820380516001836020036101000a031916815260200191505b509550505050505060405180910390a161079c610888565b505050505050565b6001818154811015156107b357fe5b90600052602060002090600402016000915090508060000154908060010154908060020160009054906101000a900460ff1690806003018054600181600116156101000203166002900480601f01602080910402602001604051908101604052809291908181526020018280546001816001161561010002031660029004801561087e5780601f106108535761010080835404028352916020019161087e565b820191906000526020600020905b81548152906001019060200180831161086157829003601f168201915b5050505050905084565b60008060008060008093505b6001805490508410156112ea57600115156001858154811015156108b457fe5b906000526020600020906004020160020160009054906101000a900460ff16151514156112dd57600092505b6001805490508310156112dc576000151560018481548110151561090057fe5b906000526020600020906004020160020160009054906101000a900460ff16151514156112cf57600260018481548110151561093857fe5b906000526020600020906004020160030160405180828054600181600116156101000203166002900480156109a45780601f106109825761010080835404028352918201916109a4565b820191906000526020600020905b815481529060010190602001808311610990575b50509150506020604051808303816000865af11580156109c8573d6000803e3d6000fd5b5050506040513d60208110156109dd57600080fd5b8101908080519060200190929190505050600019166002600186815481101515610a0357fe5b90600052602060002090600402016003016040518082805460018160011615610100020316600290048015610a6f5780601f10610a4d576101008083540402835291820191610a6f565b820191906000526020600020905b815481529060010190602001808311610a5b575b50509150506020604051808303816000865af1158015610a93573d6000803e3d6000fd5b5050506040513d6020811015610aa857600080fd5b81019080805190602001909291905050506000191614156112ce57600183815481101515610ad257fe5b906000526020600020906004020160010154600185815481101515610af357fe5b9060005260206000209060040201600101541015156112cd57600183815481101515610b1b57fe5b906000526020600020906004020160000154600185815481101515610b3c57fe5b9060005260206000209060040201600001541415610d8c577f46445881bec43b7125ea24139fb52782588118bd8000784e501788494c547fd3600185815481101515610b8457fe5b906000526020600020906004020160000154600186815481101515610ba557fe5b906000526020600020906004020160010154600187815481101515610bc657fe5b9060005260206000209060040201600301600187815481101515610be657fe5b906000526020600020906004020160000154600188815481101515610c0757fe5b906000526020600020906004020160010154600189815481101515610c2857fe5b9060005260206000209060040201600301604051808781526020018681526020018060200185815260200184815260200180602001838103835287818154600181600116156101000203166002900481526020019150805460018160011615610100020316600290048015610cde5780601f10610cb357610100808354040283529160200191610cde565b820191906000526020600020905b815481529060010190602001808311610cc157829003601f168201915b5050838103825284818154600181600116156101000203166002900481526020019150805460018160011615610100020316600290048015610d615780601f10610d3657610100808354040283529160200191610d61565b820191906000526020600020905b815481529060010190602001808311610d4457829003601f168201915b50509850505050505050505060405180910390a1610d7e846114ff565b610d87836114ff565b6112cc565b600183815481101515610d9b57fe5b906000526020600020906004020160000154600185815481101515610dbc57fe5b906000526020600020906004020160000154111561102d57600183815481101515610de357fe5b90600052602060002090600402016000015491507f46445881bec43b7125ea24139fb52782588118bd8000784e501788494c547fd382600186815481101515610e2857fe5b906000526020600020906004020160010154600187815481101515610e4957fe5b906000526020600020906004020160030185600188815481101515610e6a57fe5b906000526020600020906004020160010154600189815481101515610e8b57fe5b9060005260206000209060040201600301604051808781526020018681526020018060200185815260200184815260200180602001838103835287818154600181600116156101000203166002900481526020019150805460018160011615610100020316600290048015610f415780601f10610f1657610100808354040283529160200191610f41565b820191906000526020600020905b815481529060010190602001808311610f2457829003601f168201915b5050838103825284818154600181600116156101000203166002900481526020019150805460018160011615610100020316600290048015610fc45780601f10610f9957610100808354040283529160200191610fc4565b820191906000526020600020905b815481529060010190602001808311610fa757829003601f168201915b50509850505050505050505060405180910390a1610fe1836114ff565b81600185815481101515610ff157fe5b9060005260206000209060040201600001540360018581548110151561101357fe5b9060005260206000209060040201600001819055506112cb565b60018381548110151561103c57fe5b90600052602060002090600402016000015460018581548110151561105d57fe5b90600052602060002090600402016000015410156112ca5760018481548110151561108457fe5b90600052602060002090600402016000015490507f46445881bec43b7125ea24139fb52782588118bd8000784e501788494c547fd3816001868154811015156110c957fe5b9060005260206000209060040201600101546001878154811015156110ea57fe5b90600052602060002090600402016003018460018881548110151561110b57fe5b90600052602060002090600402016001015460018981548110151561112c57fe5b90600052602060002090600402016003016040518087815260200186815260200180602001858152602001848152602001806020018381038352878181546001816001161561010002031660029004815260200191508054600181600116156101000203166002900480156111e25780601f106111b7576101008083540402835291602001916111e2565b820191906000526020600020905b8154815290600101906020018083116111c557829003601f168201915b50508381038252848181546001816001161561010002031660029004815260200191508054600181600116156101000203166002900480156112655780601f1061123a57610100808354040283529160200191611265565b820191906000526020600020905b81548152906001019060200180831161124857829003601f168201915b50509850505050505050505060405180910390a1611282846114ff565b8060018481548110151561129257fe5b906000526020600020906004020160000154036001848154811015156112b457fe5b9060005260206000209060040201600001819055505b5b5b5b5b5b82806001019350506108e0565b5b8380600101945050610894565b5050505090565b6000806000606060018581548110151561130757fe5b906000526020600020906004020160000154935060018581548110151561132a57fe5b906000526020600020906004020160010154925060018581548110151561134d57fe5b906000526020600020906004020160020160009054906101000a900460ff16915060018581548110151561137d57fe5b90600052602060002090600402016003018054600181600116156101000203166002900480601f0160208091040260200160405190810160405280929190818152602001828054600181600116156101000203166002900480156114225780601f106113f757610100808354040283529160200191611422565b820191906000526020600020905b81548152906001019060200180831161140557829003601f168201915b505050505090509193509193565b606060018281548110151561144157fe5b90600052602060002090600402016003018054600181600116156101000203166002900480601f0160208091040260200160405190810160405280929190818152602001828054600181600116156101000203166002900480156114e65780601f106114bb576101008083540402835291602001916114e6565b820191906000526020600020905b8154815290600101906020018083116114c957829003601f168201915b50505050509050919050565b6000600180549050905090565b60008060008060018581548110151561151457fe5b906000526020600020906004020160000154935060018581548110151561153757fe5b906000526020600020906004020160010154925060018581548110151561155a57fe5b906000526020600020906004020160020160009054906101000a900460ff16915060018581548110151561158a57fe5b906000526020600020906004020160030190506001858154811015156115ac57fe5b906000526020600020906004020160008082016000905560018201600090556002820160006101000a81549060ff02191690556003820160006115ef9190611778565b50507fd956302018e17485afde53b6519b82b98f74a2c804afe6dbb1e2cde6e21bb24f848484846040518085815260200184815260200183151515158152602001806020018281038252838181546001816001161561010002031660029004815260200191508054600181600116156101000203166002900480156116b55780601f1061168a576101008083540402835291602001916116b5565b820191906000526020600020905b81548152906001019060200180831161169857829003601f168201915b50509550505050505060405180910390a15050505050565b6080604051908101604052806000815260200160008152602001600015158152602001606081525090565b828054600181600116156101000203166002900490600052602060002090601f016020900481019282601f1061173957805160ff1916838001178555611767565b82800160010185558215611767579182015b8281111561176657825182559160200191906001019061174b565b5b50905061177491906117c0565b5090565b50805460018160011615610100020316600290046000825580601f1061179e57506117bd565b601f0160209004906000526020600020908101906117bc91906117c0565b5b50565b6117e291905b808211156117de5760008160009055506001016117c6565b5090565b905600a165627a7a72305820de16cec8505e21886a6e76617a4a4451022b4fb103d5525169772171f992aac30029",
  "source": "pragma solidity ^0.4.23;\nimport \"./OrderMatchingAbstract.sol\";\n\n// matching exaxt orders\ncontract OrderMatchingPartial is OrderMatchingAbstract {\n\n   string public version = \"OM.Partial.0.0.1\";\n\n   //Constructor\n   constructor(){\n\n   }\n\n    // start order matching returning effected rows\n    function matchOrder() public returns (uint) {\n\n        for(uint actualBuyOrderIndex=0; actualBuyOrderIndex < orderBook.length; actualBuyOrderIndex++) {\n      \tif (orderBook[actualBuyOrderIndex].buyOrSell == true) {\n\t\t  \tfor(uint actualSellOrderIndex=0; actualSellOrderIndex < orderBook.length; actualSellOrderIndex++) {\n\t\t\t\tif (orderBook[actualSellOrderIndex].buyOrSell == false) {\n                \t// matching asset type \n                  \tif (sha256(orderBook[actualBuyOrderIndex].asset) == sha256(orderBook[actualSellOrderIndex].asset)) {       \n\n                        //matching price\n                        if (orderBook[actualBuyOrderIndex].price >= orderBook[actualSellOrderIndex].price) {\n\n                            // partial matching: case - exact amount\n                            if (orderBook[actualBuyOrderIndex].amount == orderBook[actualSellOrderIndex].amount) {\n                                //MATCHING\n                                // Event\n                                emit OrderMatch(orderBook[actualBuyOrderIndex].amount,\n                                orderBook[actualBuyOrderIndex].price,\n                                orderBook[actualBuyOrderIndex].asset,\n                                orderBook[actualSellOrderIndex].amount,\n                                orderBook[actualSellOrderIndex].price,\n                                orderBook[actualSellOrderIndex].asset);\n\n                                // Applying to state\n\n                                // Deleting the orders\n                                deleteOrder(actualBuyOrderIndex);\n                                deleteOrder(actualSellOrderIndex);\n                            }\n                            // partial matching: case - more buy than sell\n                            else if (orderBook[actualBuyOrderIndex].amount > orderBook[actualSellOrderIndex].amount) {\n                                uint amountBuy = orderBook[actualSellOrderIndex].amount;\n\n                                //MATCHING\n                                // Event\n                                emit OrderMatch(amountBuy,\n                                orderBook[actualBuyOrderIndex].price,\n                                orderBook[actualBuyOrderIndex].asset,\n                                amountBuy,\n                                orderBook[actualSellOrderIndex].price,\n                                orderBook[actualSellOrderIndex].asset);\n\n                                // Applying to state\n\n                                // Deleting the orders\n                                deleteOrder(actualSellOrderIndex);\n                                orderBook[actualBuyOrderIndex].amount = orderBook[actualBuyOrderIndex].amount - amountBuy;                       \n                            }               \n                            // partial matching: case - more sell  than buy\n                            else if (orderBook[actualBuyOrderIndex].amount < orderBook[actualSellOrderIndex].amount) {\n                            uint amountSell = orderBook[actualBuyOrderIndex].amount;\n                       \n                                //MATCHING\n                                // Event\n                                emit OrderMatch(amountSell,\n                                orderBook[actualBuyOrderIndex].price,\n                                orderBook[actualBuyOrderIndex].asset,\n                                amountSell,\n                                orderBook[actualSellOrderIndex].price,\n                                orderBook[actualSellOrderIndex].asset);\n\n                                // Applying to state\n\n                                // Deleting the orders\n                                deleteOrder(actualBuyOrderIndex);\n                                orderBook[actualSellOrderIndex].amount = orderBook[actualSellOrderIndex].amount - amountSell; \n                            }                      \t       \t\n                        }                  \t\n                    }      \t\t\n                }\n            }\n        }\n    }\n}\n}",
  "sourcePath": "/home/super/Eth/SimpleEthereumDEX/contracts/OrderMatchingPartial.sol",
  "compiler": {
    "name": "solc",
    "version": "0.4.24+commit.e67f0147.Emscripten.clang"
  },
  "schemaVersion": "2.0.0",
  "updatedAt": "2018-12-03T15:17:14.849Z"
}