{
  "contractName": "WalletSimpleMultiAsset",
  "abi": [
    {
      "constant": true,
      "inputs": [
        {
          "name": "",
          "type": "address"
        }
      ],
      "name": "balances",
      "outputs": [
        {
          "name": "amount",
          "type": "uint256"
        },
        {
          "name": "asset",
          "type": "string"
        }
      ],
      "payable": false,
      "stateMutability": "view",
      "type": "function"
    },
    {
      "constant": true,
      "inputs": [],
      "name": "version",
      "outputs": [
        {
          "name": "",
          "type": "string"
        }
      ],
      "payable": false,
      "stateMutability": "view",
      "type": "function"
    },
    {
      "constant": true,
      "inputs": [],
      "name": "DEX",
      "outputs": [
        {
          "name": "",
          "type": "address"
        }
      ],
      "payable": false,
      "stateMutability": "view",
      "type": "function"
    },
    {
      "inputs": [
        {
          "name": "_DEX",
          "type": "address"
        }
      ],
      "payable": false,
      "stateMutability": "nonpayable",
      "type": "constructor"
    },
    {
      "constant": true,
      "inputs": [
        {
          "name": "_address",
          "type": "address"
        }
      ],
      "name": "getBalance",
      "outputs": [
        {
          "name": "",
          "type": "uint256"
        }
      ],
      "payable": false,
      "stateMutability": "view",
      "type": "function"
    },
    {
      "constant": true,
      "inputs": [
        {
          "name": "_address",
          "type": "address"
        }
      ],
      "name": "getAsset",
      "outputs": [
        {
          "name": "",
          "type": "string"
        }
      ],
      "payable": false,
      "stateMutability": "view",
      "type": "function"
    },
    {
      "constant": false,
      "inputs": [
        {
          "name": "_address",
          "type": "address"
        },
        {
          "name": "_amount",
          "type": "uint256"
        },
        {
          "name": "_asset",
          "type": "string"
        }
      ],
      "name": "mintAsset",
      "outputs": [],
      "payable": false,
      "stateMutability": "nonpayable",
      "type": "function"
    },
    {
      "constant": false,
      "inputs": [
        {
          "name": "_address",
          "type": "address"
        },
        {
          "name": "_amount",
          "type": "uint256"
        }
      ],
      "name": "transferAsset",
      "outputs": [],
      "payable": false,
      "stateMutability": "nonpayable",
      "type": "function"
    },
    {
      "constant": false,
      "inputs": [
        {
          "name": "_from",
          "type": "address"
        },
        {
          "name": "_to",
          "type": "address"
        },
        {
          "name": "_amount",
          "type": "uint256"
        }
      ],
      "name": "transferAssetFrom",
      "outputs": [
        {
          "name": "",
          "type": "string"
        }
      ],
      "payable": false,
      "stateMutability": "nonpayable",
      "type": "function"
    }
  ],
  "bytecode": "0x60806040526040805190810160405280600c81526020017f57616c6c65742e302e302e3100000000000000000000000000000000000000008152506000908051906020019062000051929190620000cb565b503480156200005f57600080fd5b50604051602080620013258339810180604052810190808051906020019092919050505080600260006101000a81548173ffffffffffffffffffffffffffffffffffffffff021916908373ffffffffffffffffffffffffffffffffffffffff160217905550506200017a565b828054600181600116156101000203166002900490600052602060002090601f016020900481019282601f106200010e57805160ff19168380011785556200013f565b828001600101855582156200013f579182015b828111156200013e57825182559160200191906001019062000121565b5b5090506200014e919062000152565b5090565b6200017791905b808211156200017357600081600090555060010162000159565b5090565b90565b61119b806200018a6000396000f30060806040526004361061008e576000357c0100000000000000000000000000000000000000000000000000000000900463ffffffff16806327e235e3146100935780632af3b5651461015657806330b8b2c6146101e957806354fd4d50146102a55780635c921eb91461033557806380935aa914610382578063d311afb4146103d9578063f8b2cb4f146104bf575b600080fd5b34801561009f57600080fd5b506100d4600480360381019080803573ffffffffffffffffffffffffffffffffffffffff169060200190929190505050610516565b6040518083815260200180602001828103825283818151815260200191508051906020019080838360005b8381101561011a5780820151818401526020810190506100ff565b50505050905090810190601f1680156101475780820380516001836020036101000a031916815260200191505b50935050505060405180910390f35b34801561016257600080fd5b506101e7600480360381019080803573ffffffffffffffffffffffffffffffffffffffff16906020019092919080359060200190929190803590602001908201803590602001908080601f01602080910402602001604051908101604052809392919081815260200183838082843782019150505050505091929192905050506105d2565b005b3480156101f557600080fd5b5061022a600480360381019080803573ffffffffffffffffffffffffffffffffffffffff169060200190929190505050610715565b6040518080602001828103825283818151815260200191508051906020019080838360005b8381101561026a57808201518184015260208101905061024f565b50505050905090810190601f1680156102975780820380516001836020036101000a031916815260200191505b509250505060405180910390f35b3480156102b157600080fd5b506102ba6107f9565b6040518080602001828103825283818151815260200191508051906020019080838360005b838110156102fa5780820151818401526020810190506102df565b50505050905090810190601f1680156103275780820380516001836020036101000a031916815260200191505b509250505060405180910390f35b34801561034157600080fd5b50610380600480360381019080803573ffffffffffffffffffffffffffffffffffffffff16906020019092919080359060200190929190505050610897565b005b34801561038e57600080fd5b50610397610c47565b604051808273ffffffffffffffffffffffffffffffffffffffff1673ffffffffffffffffffffffffffffffffffffffff16815260200191505060405180910390f35b3480156103e557600080fd5b50610444600480360381019080803573ffffffffffffffffffffffffffffffffffffffff169060200190929190803573ffffffffffffffffffffffffffffffffffffffff16906020019092919080359060200190929190505050610c6d565b6040518080602001828103825283818151815260200191508051906020019080838360005b83811015610484578082015181840152602081019050610469565b50505050905090810190601f1680156104b15780820380516001836020036101000a031916815260200191505b509250505060405180910390f35b3480156104cb57600080fd5b50610500600480360381019080803573ffffffffffffffffffffffffffffffffffffffff16906020019092919050505061107e565b6040518082815260200191505060405180910390f35b6001602052806000526040600020600091509050806000015490806001018054600181600116156101000203166002900480601f0160208091040260200160405190810160405280929190818152602001828054600181600116156101000203166002900480156105c85780601f1061059d576101008083540402835291602001916105c8565b820191906000526020600020905b8154815290600101906020018083116105ab57829003601f168201915b5050505050905082565b600260009054906101000a900473ffffffffffffffffffffffffffffffffffffffff1673ffffffffffffffffffffffffffffffffffffffff163373ffffffffffffffffffffffffffffffffffffffff1614151561062e57600080fd5b81600160008573ffffffffffffffffffffffffffffffffffffffff1673ffffffffffffffffffffffffffffffffffffffff1681526020019081526020016000206000015401600160008573ffffffffffffffffffffffffffffffffffffffff1673ffffffffffffffffffffffffffffffffffffffff1681526020019081526020016000206000018190555080600160008573ffffffffffffffffffffffffffffffffffffffff1673ffffffffffffffffffffffffffffffffffffffff168152602001908152602001600020600101908051906020019061070f9291906110ca565b50505050565b6060600160008373ffffffffffffffffffffffffffffffffffffffff1673ffffffffffffffffffffffffffffffffffffffff1681526020019081526020016000206001018054600181600116156101000203166002900480601f0160208091040260200160405190810160405280929190818152602001828054600181600116156101000203166002900480156107ed5780601f106107c2576101008083540402835291602001916107ed565b820191906000526020600020905b8154815290600101906020018083116107d057829003601f168201915b50505050509050919050565b60008054600181600116156101000203166002900480601f01602080910402602001604051908101604052809291908181526020018280546001816001161561010002031660029004801561088f5780601f106108645761010080835404028352916020019161088f565b820191906000526020600020905b81548152906001019060200180831161087257829003601f168201915b505050505081565b6000600160008473ffffffffffffffffffffffffffffffffffffffff1673ffffffffffffffffffffffffffffffffffffffff1681526020019081526020016000206001018054600181600116156101000203166002900490501115610add576002600160003373ffffffffffffffffffffffffffffffffffffffff1673ffffffffffffffffffffffffffffffffffffffff16815260200190815260200160002060010160405180828054600181600116156101000203166002900480156109955780601f10610973576101008083540402835291820191610995565b820191906000526020600020905b815481529060010190602001808311610981575b50509150506020604051808303816000865af11580156109b9573d6000803e3d6000fd5b5050506040513d60208110156109ce57600080fd5b8101908080519060200190929190505050600019166002600160008573ffffffffffffffffffffffffffffffffffffffff1673ffffffffffffffffffffffffffffffffffffffff1681526020019081526020016000206001016040518082805460018160011615610100020316600290048015610a825780601f10610a60576101008083540402835291820191610a82565b820191906000526020600020905b815481529060010190602001808311610a6e575b50509150506020604051808303816000865af1158015610aa6573d6000803e3d6000fd5b5050506040513d6020811015610abb57600080fd5b810190808051906020019092919050505060001916141515610adc57600080fd5b5b80600160003373ffffffffffffffffffffffffffffffffffffffff1673ffffffffffffffffffffffffffffffffffffffff16815260200190815260200160002060000154111515610b2d57600080fd5b80600160008473ffffffffffffffffffffffffffffffffffffffff1673ffffffffffffffffffffffffffffffffffffffff1681526020019081526020016000206000015401600160008473ffffffffffffffffffffffffffffffffffffffff1673ffffffffffffffffffffffffffffffffffffffff1681526020019081526020016000206000018190555080600160003373ffffffffffffffffffffffffffffffffffffffff1673ffffffffffffffffffffffffffffffffffffffff1681526020019081526020016000206000015403600160003373ffffffffffffffffffffffffffffffffffffffff1673ffffffffffffffffffffffffffffffffffffffff168152602001908152602001600020600001819055505050565b600260009054906101000a900473ffffffffffffffffffffffffffffffffffffffff1681565b6060600260009054906101000a900473ffffffffffffffffffffffffffffffffffffffff1673ffffffffffffffffffffffffffffffffffffffff163373ffffffffffffffffffffffffffffffffffffffff16141515610ccb57600080fd5b6000600160008573ffffffffffffffffffffffffffffffffffffffff1673ffffffffffffffffffffffffffffffffffffffff1681526020019081526020016000206001018054600181600116156101000203166002900490501115610f11576002600160008573ffffffffffffffffffffffffffffffffffffffff1673ffffffffffffffffffffffffffffffffffffffff1681526020019081526020016000206001016040518082805460018160011615610100020316600290048015610dc95780601f10610da7576101008083540402835291820191610dc9565b820191906000526020600020905b815481529060010190602001808311610db5575b50509150506020604051808303816000865af1158015610ded573d6000803e3d6000fd5b5050506040513d6020811015610e0257600080fd5b8101908080519060200190929190505050600019166002600160008773ffffffffffffffffffffffffffffffffffffffff1673ffffffffffffffffffffffffffffffffffffffff1681526020019081526020016000206001016040518082805460018160011615610100020316600290048015610eb65780601f10610e94576101008083540402835291820191610eb6565b820191906000526020600020905b815481529060010190602001808311610ea2575b50509150506020604051808303816000865af1158015610eda573d6000803e3d6000fd5b5050506040513d6020811015610eef57600080fd5b810190808051906020019092919050505060001916141515610f1057600080fd5b5b81600160008673ffffffffffffffffffffffffffffffffffffffff1673ffffffffffffffffffffffffffffffffffffffff16815260200190815260200160002060000154111515610f6157600080fd5b81600160008573ffffffffffffffffffffffffffffffffffffffff1673ffffffffffffffffffffffffffffffffffffffff1681526020019081526020016000206000015401600160008573ffffffffffffffffffffffffffffffffffffffff1673ffffffffffffffffffffffffffffffffffffffff1681526020019081526020016000206000018190555081600160008673ffffffffffffffffffffffffffffffffffffffff1673ffffffffffffffffffffffffffffffffffffffff1681526020019081526020016000206000015403600160008673ffffffffffffffffffffffffffffffffffffffff1673ffffffffffffffffffffffffffffffffffffffff168152602001908152602001600020600001819055509392505050565b6000600160008373ffffffffffffffffffffffffffffffffffffffff1673ffffffffffffffffffffffffffffffffffffffff168152602001908152602001600020600001549050919050565b828054600181600116156101000203166002900490600052602060002090601f016020900481019282601f1061110b57805160ff1916838001178555611139565b82800160010185558215611139579182015b8281111561113857825182559160200191906001019061111d565b5b509050611146919061114a565b5090565b61116c91905b80821115611168576000816000905550600101611150565b5090565b905600a165627a7a72305820be1d671b24a18970abdd2639b4b80d4f75a3f90e47b1c7ee6cb77cd65d35f2cc0029",
  "source": "pragma solidity ^0.4.23;\nimport \"./WalletAbstract.sol\";\n\n// simple multiasset wallet, one address, one asset type\ncontract WalletSimpleMultiAsset {\n\n    string public version = \"Wallet.0.0.1\";\n\n    // Simple balance structure\n    struct Balance{\n        uint amount;\n        string asset;\n    }\n\n    // multi asset balances\n    mapping(address => Balance) public balances;\n\n    // DEX reference\n    address public DEX;\n\n    // Constructor\n    constructor (address _DEX){\n        DEX = _DEX;\n    }\n\n    // MODIFIERS\n    modifier isAddressOwner (address _address){\n        require(msg.sender == _address);\n        _;\n    }\n\n    modifier isCallerDEX (){\n        require(msg.sender == DEX);\n        _;\n    }\n\n    // READ FUNCTIONS\n    // function get balance\n    function getBalance(address _address) view public returns (uint){\n        return balances[_address].amount; \n    }\n\n    // function get asset\n    function getAsset(address _address) view public returns (string){\n        return balances[_address].asset; \n    }\n\n    // DIRECT USER FUNCTIONS\n    // mint asset - only DEX can mint assets\n    function mintAsset(address _address, uint _amount, string _asset) isCallerDEX() public{\n        balances[_address].amount =  balances[_address].amount + _amount;\n        balances[_address].asset =  _asset;\n    }\n\n    // transfer asset - do not use live, underflow and overflow attack\n    function transferAsset(address _address, uint _amount)  public {\n        if (bytes(balances[_address].asset).length > 0){\n            require(sha256(balances[_address].asset) == sha256(balances[msg.sender].asset));\n        }\n        require (balances[msg.sender].amount > _amount);\n        balances[_address].amount =  balances[_address].amount + _amount;\n        balances[msg.sender].amount =  balances[msg.sender].amount - _amount;\n    }\n\n    // transfer asset - do not use live, underflow and overflow attack\n    function transferAssetFrom(address _from, address _to, uint _amount) isCallerDEX() public returns (string){\n        if (bytes(balances[_to].asset).length > 0){\n            require(sha256(balances[_from].asset) == sha256(balances[_to].asset));\n        }\n        require (balances[_from].amount > _amount);\n        balances[_to].amount =  balances[_to].amount + _amount;\n        balances[_from].amount =  balances[_from].amount - _amount;\n    }\n}\n\n",
  "sourcePath": "/home/super/Eth/SimpleEthereumDEX/contracts/WalletSimpleMultiAsset.sol",
  "compiler": {
    "name": "solc",
    "version": "0.4.24+commit.e67f0147.Emscripten.clang"
  },
  "schemaVersion": "2.0.0",
  "updatedAt": "2018-12-05T15:20:28.359Z"
}